:100000000C942A000C9447000C9447000C945C005C
:100010000C9447000C9447000C9447000C949300F8
:100020000C9447000C9447000C94A2000C944700D9
:100030000C9447000C9447000C9447000C94470024
:100040000C9447000C9447000C9447000C94470014
:100050000C94470011241FBECFE5D8E0DEBFCDBF12
:1000600010E0A0E6B0E0E4E6FCE002C005900D92EE
:10007000AC39B107D9F720E0ACE9B0E001C01D927E
:10008000AE3BB207E1F70E9449000C9430060C9495
:1000900000000E94EE0180919C00813021F030F040
:1000A000823039F0F8CF0E948801F5CF0E942B02F0
:1000B000F2CF0E94D000EFCF1F920F920FB60F9297
:1000C00011242F933F934F935F936F937F938F935D
:1000D0009F93AF93BF93EF93FF9380919C00811107
:1000E0000CC081E080939C0080E090E00E943B0483
:1000F0009093A3008093A20005C08150823010F439
:1001000010929C00FF91EF91BF91AF919F918F91C1
:100110007F916F915F914F913F912F910F900FBE03
:100120000F901F9018951F920F920FB60F921124E7
:100130008F9381E08093A8008F910F900FBE0F9056
:100140001F9018951F920F920FB60F9211242F93A4
:100150003F938F939F9380919C0081508230B8F49D
:100160008091A1008F5F8093A100982F937051F42C
:1001700020919F003091A00091E029273093A000AA
:1001800020939F00853118F081E080939C009F911F
:100190008F913F912F910F900FBE0F901F90189548
:1001A0000E94B7020E94A3020E94AD0280919F00AC
:1001B0009091A000019739F48091A2009091A30042
:1001C0000E94E70202C00E94E2020E944C028130BB
:1001D00089F48091A2009091A3008B34910550F492
:1001E00005969093A3008093A2001092A1000E9414
:1001F000E70214C00E947502813081F48091A20050
:100200009091A3008432910548F005979093A30044
:100210008093A2001092A1000E94E7026091A200C8
:100220007091A30080E090E00E94420408958091C4
:10023000A6009091A700AC014B5F5F4F2091A200F8
:100240003091A3002417350768F4BC01655071098B
:100250006217730738F40E94B7020E94A3020E943B
:10026000AD0208952417350738F40E94B7020E94A2
:100270009E020E94AD02089505978217930778F4B5
:100280000E94A3020E94A80280919F009091A0006A
:10029000019719F40E94B20208950E94B7020895CE
:1002A00020919D0030919E00220F331F820F931FDB
:1002B000FC017183608380919D0090919E00019666
:1002C00090939E0080939D000A9721F410929E00C7
:1002D00010929D000895BC0190E020E030E00BC03A
:1002E000E92FF0E0EE0FFF1FE60FF71F408151816D
:1002F000240F351F9F5F9A3098F3ADECBCEC0E9441
:100300002106969587959695879596958795089554
:100310008091A800813009F50E945103BC0180E062
:1003200090E00E94260520E030E040E05FE30E947C
:100330008C050E94F7047093A5006093A4008AEADC
:1003400090E00E9450018AEA90E00E946B01909335
:10035000A7008093A6001092A8008091A40090911D
:10036000A5000E94E7020E9417010E944C02813002
:1003700021F00E947502813039F40E94D902109256
:10038000A10082E080939C0008950E945103BC016B
:1003900080E090E00E94260520E030E040E05FE34E
:1003A0000E948C050E94F70480E009C0E82FF0E06D
:1003B000EE0FFF1FE655FF4F718360838F5F8A301A
:1003C000A8F38AEA90E00E946B019093A7008093C3
:1003D000A60010929E0010929D0008950E942F0387
:1003E0000E9436020E945C040E94E0040E94E9041C
:1003F0000E94F30410929C0080E090E00E943B0475
:100400008F3F910549F080E090E00E943B0490937B
:10041000A3008093A20006C082E390E09093A30023
:100420008093A2000E94C5016091A2007091A30078
:10043000772780E090E00E944204089585B78F7E80
:1004400085BF85B78F7D85BF85B78F7B85BF85B716
:10045000806885BF08950E94E2020E94B7020E9450
:10046000A3020E94AD020E941E02089561E089E08D
:100470000E94600361E08AE00E94600361E08BE01B
:100480000E9460038FB780688FBF84B7806484BF89
:100490008BB780628BBF0895CF93DF9300D0CDB729
:1004A000DEB781E089831A82BE016F5F7F4F89E0EA
:1004B0000E94E70306C0BE016E5F7F4F89E00E9485
:1004C000E7038A818823B9F383EC99E00197F1F778
:1004D00000C000008981811102C081E001C080E07C
:1004E0000F900F90DF91CF910895CF93DF9300D0BD
:1004F000CDB7DEB781E089831A82BE016F5F7F4F7F
:100500008BE00E94E70306C0BE016E5F7F4F8BE069
:100510000E94E7038A818823B9F383EC99E001976D
:10052000F1F700C000008981811102C081E001C0A3
:1005300080E00F900F90DF91CF91089561E08DE002
:100540000E946003089560E08DE00E9460030895BA
:1005500061E08CE00E946003089560E08CE00E94FE
:100560006003089561E088E00E946003089560E000
:1005700088E00E9460030895805A9F4FFC016081CB
:1005800088E10E94280408958E3041F461E00E94C1
:10059000600360E08FE00E94600308958F3041F4B3
:1005A00060E08EE00E94600361E08FE00E946003E3
:1005B000089560E08EE00E94600360E08FE00E949A
:1005C0006003089560E088E10E94280408950F9375
:1005D0001F93CF93DF93AC019C01ADECBCEC0E9468
:1005E0002106EC01D695C795D695C795D695C795A2
:1005F000CE01880F991FCC0FDD1FCC0FDD1FCC0F54
:10060000DD1FC80FD91FCA018C1B9D0BEC010E9476
:1006100021068C0116950795169507951695079551
:100620008EE00E94C402CE0199270E94BC028FE393
:100630009FE10197F1F700C000008FE00E94C40223
:10064000C80199270E94BC028FE39FE10197F1F74F
:1006500000C00000DF91CF911F910F91089587B1E5
:10066000806487B987B18E7F87B987B18D7F87B95D
:1006700087B18B7F87B987B1877F87B987B18F7E35
:1006800087B987B18F7D87B986B1816086B986B118
:100690008D7F86B986B18B7F86B986B1806886B931
:1006A000089586B1806486B9309BFECF34B185B1A0
:1006B00090E0982F882726B1206126B9832B0895D2
:1006C000982F9695969596958770662309F43FC066
:1006D000613009F07BC0913099F028F09230E9F058
:1006E000933041F108954BB321E030E0B90102C0ED
:1006F000660F771F8A95E2F7CB01842B8BBB089599
:1007000048B321E030E0B90102C0660F771F8A9537
:10071000E2F7CB01842B88BB089545B321E030E09C
:10072000B90102C0660F771F8A95E2F7CB01842BCF
:1007300085BB089542B321E030E0B90102C0660FE5
:10074000771F8A95E2F7CB01842B82BB0895913005
:10075000A1F028F09230F9F0933059F108954BB39D
:1007600021E030E0B90102C0660F771F8A95E2F7F9
:10077000CB01809584238BBB089548B321E030E002
:10078000B90102C0660F771F8A95E2F7CB01809509
:10079000842388BB089545B321E030E0B90102C04D
:1007A000660F771F8A95E2F7CB018095842385BB7E
:1007B000089542B321E030E0B90102C0660F771F0F
:1007C0008A95E2F7CB018095842382BB0895982F08
:1007D0009695969596958770913099F028F092307D
:1007E000E9F0933041F1089529B330E0A90102C046
:1007F000559547958A95E2F7CA018170FB01808380
:10080000089526B330E0A90102C0559547958A9511
:10081000E2F7CA018170FB018083089523B330E0C1
:10082000A90102C0559547958A95E2F7CA018170E2
:10083000FB018083089520B330E0A90102C05595E3
:1008400047958A95E2F7CA018170FB01808308957C
:10085000869586958695813041F028F0823039F072
:10086000833039F008956BBB089568BB089565BB6C
:10087000089562BB08958EBB9FBB8CB381608CBB17
:100880008DB308958EBB9FBB6DBB0FB607FE05C031
:100890008FB78F778FBF91E001C090E08CB38460F9
:1008A0008CBB8CB382608CBBE199FECF913019F484
:1008B0008FB780688FBF089590E07EC0E92FF0E089
:1008C000EE0FFF1FE659FF4F8081282F26952695B2
:1008D0002695877031813323B9F1313009F06BC02F
:1008E000213089F028F02230C9F0233011F163C0A3
:1008F0004AB321E030E002C0220F331F8A95E2F7AD
:10090000242B2ABB58C047B321E030E002C0220F9D
:10091000331F8A95E2F7242B27BB4DC044B321E057
:1009200030E002C0220F331F8A95E2F7242B24BB4C
:1009300042C041B321E030E002C0220F331F8A954C
:10094000E2F7242B21BB37C0213091F028F0223070
:10095000D9F0233029F12FC04AB321E030E002C0A2
:10096000220F331F8A95E2F7209524232ABB23C048
:1009700047B321E030E002C0220F331F8A95E2F72F
:100980002095242327BB17C044B321E030E002C0E8
:10099000220F331F8A95E2F72095242324BB0BC036
:1009A00041B321E030E002C0220F331F8A95E2F705
:1009B0002095242321BB9F5F993108F47FCF0895B0
:1009C00083B783BF89B7816089BF8FB780688FBFC6
:1009D00008958AB188608AB989B7806189BF8FB765
:1009E00080688FBF089589B7806189BF08950E948C
:1009F0006B0588F09F5798F0B92F9927B751B0F041
:100A0000E1F0660F771F881F991F1AF0BA95C9F792
:100A100014C0B13091F00E948505B1E008950C94A6
:100A20008505672F782F8827B85F39F0B93FCCF359
:100A3000869577956795B395D9F73EF4909580950F
:100A4000709561957F4F8F4F9F4F0895E89409C02F
:100A500097FB3EF490958095709561957F4F8F4FF1
:100A60009F4F9923A9F0F92F96E9BB279395F69507
:100A7000879577956795B795F111F8CFFAF4BB0F85
:100A800011F460FF1BC06F5F7F4F8F4F9F4F16C0E9
:100A9000882311F096E911C0772321F09EE8872F73
:100AA000762F05C0662371F096E8862F70E060E02F
:100AB0002AF09A95660F771F881FDAF7880F9695A8
:100AC000879597F9089557FD9058440F551F59F091
:100AD0005F3F71F04795880F97FB991F61F09F3F2B
:100AE00079F087950895121613061406551FF2CF54
:100AF0004695F1DF08C0161617061806991FF1CFA4
:100B000086957105610508940895E894BB276627CA
:100B10007727CB0197F908950E949F050C94100642
:100B20000E94020638F00E94090620F0952311F079
:100B30000C94F9050C94FF0511240C9486050E9471
:100B4000630570F3959FC1F3950F50E0551F629FA9
:100B5000F001729FBB27F00DB11D639FAA27F00D16
:100B6000B11DAA1F649F6627B00DA11D661F829F3D
:100B70002227B00DA11D621F739FB00DA11D621F22
:100B8000839FA00D611D221F749F3327A00D611D3F
:100B9000231F849F600D211D822F762F6A2F112421
:100BA0009F5750409AF0F1F088234AF0EE0FFF1F54
:100BB000BB1F661F771F881F91505040A9F79E3FAB
:100BC000510580F00C94F9050C9486055F3FE4F321
:100BD000983ED4F3869577956795B795F795E79501
:100BE0009F5FC1F7FE2B880F911D9695879597F90A
:100BF000089597F99F6780E870E060E008959FEF9F
:100C000080EC089500240A941616170618060906A3
:100C1000089500240A941216130614060506089572
:100C2000092E0394000C11F4882352F0BB0F40F4FA
:100C3000BF2B11F460FF04C06F5F7F4F8F4F9F4F3A
:100C40000895A29FB001B39FC001A39F700D811DA5
:100C50001124911DB29F700D811D1124911D0895C5
:040C6000F894FFCF36
:100C64003F065B4F666D7D077F6F180119011A01FE
:100C74001B011C011D011E011F010E010F010801B2
:100C84000C010D01000009000A000B000000000027
:0C0C940000000000000000000000000054
:00000001FF
